{"abi":[{"type":"constructor","inputs":[{"name":"_remoteAttestationVerifier","type":"address","internalType":"address"}],"stateMutability":"nonpayable"},{"type":"function","name":"computeNodesAt","inputs":[{"name":"index","type":"uint256","internalType":"uint256"}],"outputs":[{"name":"","type":"bytes","internalType":"bytes"}],"stateMutability":"view"},{"type":"function","name":"computeNodesContains","inputs":[{"name":"value","type":"bytes","internalType":"bytes"}],"outputs":[{"name":"","type":"bool","internalType":"bool"}],"stateMutability":"view"},{"type":"function","name":"computeNodesLength","inputs":[],"outputs":[{"name":"","type":"uint256","internalType":"uint256"}],"stateMutability":"view"},{"type":"function","name":"computeNodesValues","inputs":[],"outputs":[{"name":"","type":"bytes[]","internalType":"bytes[]"}],"stateMutability":"view"},{"type":"function","name":"dataNodesAt","inputs":[{"name":"index","type":"uint256","internalType":"uint256"}],"outputs":[{"name":"","type":"bytes","internalType":"bytes"}],"stateMutability":"view"},{"type":"function","name":"dataNodesContains","inputs":[{"name":"value","type":"bytes","internalType":"bytes"}],"outputs":[{"name":"","type":"bool","internalType":"bool"}],"stateMutability":"view"},{"type":"function","name":"dataNodesLength","inputs":[],"outputs":[{"name":"","type":"uint256","internalType":"uint256"}],"stateMutability":"view"},{"type":"function","name":"dataNodesValues","inputs":[],"outputs":[{"name":"","type":"bytes[]","internalType":"bytes[]"}],"stateMutability":"view"},{"type":"function","name":"keysNodesAt","inputs":[{"name":"index","type":"uint256","internalType":"uint256"}],"outputs":[{"name":"","type":"bytes","internalType":"bytes"}],"stateMutability":"view"},{"type":"function","name":"keysNodesContains","inputs":[{"name":"value","type":"bytes","internalType":"bytes"}],"outputs":[{"name":"","type":"bool","internalType":"bool"}],"stateMutability":"view"},{"type":"function","name":"keysNodesLength","inputs":[],"outputs":[{"name":"","type":"uint256","internalType":"uint256"}],"stateMutability":"view"},{"type":"function","name":"keysNodesValues","inputs":[],"outputs":[{"name":"","type":"bytes[]","internalType":"bytes[]"}],"stateMutability":"view"},{"type":"function","name":"registerComputeNode","inputs":[{"name":"publicValues","type":"bytes","internalType":"bytes"},{"name":"proof","type":"bytes","internalType":"bytes"}],"outputs":[],"stateMutability":"nonpayable"},{"type":"function","name":"registerDataNode","inputs":[{"name":"bytesPubkey","type":"bytes","internalType":"bytes"}],"outputs":[],"stateMutability":"nonpayable"},{"type":"function","name":"registerKeyNode","inputs":[{"name":"publicValues","type":"bytes","internalType":"bytes"},{"name":"proof","type":"bytes","internalType":"bytes"}],"outputs":[],"stateMutability":"nonpayable"},{"type":"function","name":"verifyAttestation","inputs":[{"name":"publicValues","type":"bytes","internalType":"bytes"},{"name":"proof","type":"bytes","internalType":"bytes"}],"outputs":[],"stateMutability":"nonpayable"},{"type":"event","name":"ComputeNodeRegistered","inputs":[{"name":"pubkey","type":"bytes","indexed":false,"internalType":"bytes"}],"anonymous":false},{"type":"event","name":"DataNodeRegistered","inputs":[{"name":"pubkey","type":"bytes","indexed":false,"internalType":"bytes"}],"anonymous":false},{"type":"event","name":"KeyNodeRegistered","inputs":[{"name":"pubkey","type":"bytes","indexed":false,"internalType":"bytes"}],"anonymous":false}],"bytecode":{"object":"0x608060405234801561000f575f80fd5b50604051610bb7380380610bb783398101604081905261002e91610053565b600680546001600160a01b0319166001600160a01b0392909216919091179055610080565b5f60208284031215610063575f80fd5b81516001600160a01b0381168114610079575f80fd5b9392505050565b610b2a8061008d5f395ff3fe608060405234801561000f575f80fd5b50600436106100fa575f3560e01c806369b3d60111610093578063c02abb2811610063578063c02abb28146101e5578063dfcc5c87146101ed578063e0dbc4ba14610200578063f14ebd0d14610213575f80fd5b806369b3d601146101af5780639019cfe6146101b75780639fb63002146101bf578063b1d7944e146101d2575f80fd5b8063462438af116100ce578063462438af1461016c578063510876711461017f57806351bdc3361461019257806362889b21146101a7575f80fd5b80625104d0146100fe578063056816d9146101145780630ca774731461013457806336af480314610149575b5f80fd5b5f545b6040519081526020015b60405180910390f35b6101276101223660046106a0565b61022b565b60405161010b9190610704565b610147610142366004610762565b61023d565b005b61015c6101573660046107dd565b6102a6565b604051901515815260200161010b565b61012761017a3660046106a0565b6102b1565b61015c61018d3660046107dd565b6102be565b61019a6102ca565b60405161010b9190610888565b6101016102d5565b61019a6102df565b61019a6102eb565b6101476101cd366004610762565b6102f7565b61015c6101e03660046107dd565b61039b565b6101016103a7565b6101476101fb3660046107dd565b6103b1565b61014761020e366004610762565b6103f7565b6101276102213660046106a0565b610488565b905090565b60606102375f83610491565b92915050565b600654604051630ca7747360e01b81526001600160a01b0390911690630ca7747390610273908790879087908790600401610910565b5f604051808303815f87803b15801561028a575f80fd5b505af115801561029c573d5f803e3d5ffd5b5050505050505050565b5f610237818361053e565b6060610237600483610491565b5f61023760028361053e565b60606102265f61056a565b5f61022660025490565b6060610226600461056a565b6060610226600261056a565b6103038484848461023d565b365f610313602960088789610941565b9150915061035982828080601f0160208091040260200160405190810160405280939291908181526020018383808284375f920191909152506002939250506106419050565b507ff8fa8f0cd1750bb1693acfed9cce338cb911614b1dd68953cce976315a945a0d828260405161038b929190610968565b60405180910390a1505050505050565b5f61023760048361053e565b5f61022660045490565b6103bc600482610641565b507fab3a125e976175e606e46110bb3e2ca95d1e0dd6f02491677918bf84c5fb3da9816040516103ec9190610704565b60405180910390a150565b6104038484848461023d565b365f610413602960088789610941565b9150915061045682828080601f0160208091040260200160405190810160405280939291908181526020018383808284375f920182905250939250506106419050565b507f97fad762ed1651fb6df8fec4c03eebf74f0984fa02bce8295af02dbed8e77d46828260405161038b929190610968565b60606102376002835b6060825f0182815481106104a7576104a7610983565b905f5260205f200180546104ba90610997565b80601f01602080910402602001604051908101604052809291908181526020018280546104e690610997565b80156105315780601f1061050857610100808354040283529160200191610531565b820191905f5260205f20905b81548152906001019060200180831161051457829003601f168201915b5050505050905092915050565b5f826001018260405161055191906109cf565b9081526040519081900360200190205415159392505050565b6060815f01805480602002602001604051908101604052809291908181526020015f905b82821015610636578382905f5260205f200180546105ab90610997565b80601f01602080910402602001604051908101604052809291908181526020018280546105d790610997565b80156106225780601f106105f957610100808354040283529160200191610622565b820191905f5260205f20905b81548152906001019060200180831161060557829003601f168201915b50505050508152602001906001019061058e565b505050509050919050565b5f61064c838361053e565b6106995782546001810184555f848152602090200161066b8382610a38565b50825460405160018501906106819085906109cf565b90815260405190819003602001902055506001610237565b505f610237565b5f602082840312156106b0575f80fd5b5035919050565b5f5b838110156106d15781810151838201526020016106b9565b50505f910152565b5f81518084526106f08160208601602086016106b7565b601f01601f19169290920160200192915050565b602081525f61071660208301846106d9565b9392505050565b5f8083601f84011261072d575f80fd5b50813567ffffffffffffffff811115610744575f80fd5b60208301915083602082850101111561075b575f80fd5b9250929050565b5f805f8060408587031215610775575f80fd5b843567ffffffffffffffff8082111561078c575f80fd5b6107988883890161071d565b909650945060208701359150808211156107b0575f80fd5b506107bd8782880161071d565b95989497509550505050565b634e487b7160e01b5f52604160045260245ffd5b5f602082840312156107ed575f80fd5b813567ffffffffffffffff80821115610804575f80fd5b818401915084601f830112610817575f80fd5b813581811115610829576108296107c9565b604051601f8201601f19908116603f01168101908382118183101715610851576108516107c9565b81604052828152876020848701011115610869575f80fd5b826020860160208301375f928101602001929092525095945050505050565b5f602080830181845280855180835260408601915060408160051b87010192508387015f5b828110156108db57603f198886030184526108c98583516106d9565b945092850192908501906001016108ad565b5092979650505050505050565b81835281816020850137505f828201602090810191909152601f909101601f19169091010190565b604081525f6109236040830186886108e8565b82810360208401526109368185876108e8565b979650505050505050565b5f808585111561094f575f80fd5b8386111561095b575f80fd5b5050820193919092039150565b602081525f61097b6020830184866108e8565b949350505050565b634e487b7160e01b5f52603260045260245ffd5b600181811c908216806109ab57607f821691505b6020821081036109c957634e487b7160e01b5f52602260045260245ffd5b50919050565b5f82516109e08184602087016106b7565b9190910192915050565b601f821115610a33575f81815260208120601f850160051c81016020861015610a105750805b601f850160051c820191505b81811015610a2f57828155600101610a1c565b5050505b505050565b815167ffffffffffffffff811115610a5257610a526107c9565b610a6681610a608454610997565b846109ea565b602080601f831160018114610a99575f8415610a825750858301515b5f19600386901b1c1916600185901b178555610a2f565b5f85815260208120601f198616915b82811015610ac757888601518255948401946001909101908401610aa8565b5085821015610ae457878501515f19600388901b60f8161c191681555b5050505050600190811b0190555056fea2646970667358221220993b9f3f92a4428b9407f5f911172bb2109d99e28338499c1749a7f055685da864736f6c63430008140033","linkReferences":{}},"methodIdentifiers":{"computeNodesAt(uint256)":"056816d9","computeNodesContains(bytes)":"36af4803","computeNodesLength()":"005104d0","computeNodesValues()":"51bdc336","dataNodesAt(uint256)":"462438af","dataNodesContains(bytes)":"b1d7944e","dataNodesLength()":"c02abb28","dataNodesValues()":"69b3d601","keysNodesAt(uint256)":"f14ebd0d","keysNodesContains(bytes)":"51087671","keysNodesLength()":"62889b21","keysNodesValues()":"9019cfe6","registerComputeNode(bytes,bytes)":"e0dbc4ba","registerDataNode(bytes)":"dfcc5c87","registerKeyNode(bytes,bytes)":"9fb63002","verifyAttestation(bytes,bytes)":"0ca77473"},"id":26}