{"abi":[{"type":"function","name":"completeTask","inputs":[{"name":"taskId","type":"uint256","internalType":"uint256"},{"name":"outputHash","type":"bytes32","internalType":"bytes32"},{"name":"outputSignature","type":"bytes","internalType":"bytes"},{"name":"encryptedOutput","type":"bytes","internalType":"bytes"}],"outputs":[],"stateMutability":"nonpayable"},{"type":"function","name":"completeTaskWithData","inputs":[{"name":"taskId","type":"uint256","internalType":"uint256"},{"name":"outputHash","type":"bytes32","internalType":"bytes32"},{"name":"outputSignature","type":"bytes","internalType":"bytes"},{"name":"dataNodePubkey","type":"bytes","internalType":"bytes"}],"outputs":[],"stateMutability":"nonpayable"},{"type":"function","name":"completedTasks","inputs":[{"name":"","type":"uint256","internalType":"uint256"}],"outputs":[{"name":"taskId","type":"uint256","internalType":"uint256"},{"name":"outputHash","type":"bytes32","internalType":"bytes32"},{"name":"outputSignature","type":"bytes","internalType":"bytes"},{"name":"encryptedOutput","type":"bytes","internalType":"bytes"},{"name":"dataNodePubkey","type":"bytes","internalType":"bytes"}],"stateMutability":"view"},{"type":"function","name":"requestModel","inputs":[{"name":"task","type":"tuple","internalType":"struct TaskManager.Task","components":[{"name":"modelName","type":"string","internalType":"string"},{"name":"userPubkey","type":"bytes","internalType":"bytes"},{"name":"encryptedInput","type":"bytes","internalType":"bytes"}]},{"name":"computeNodePubkey","type":"bytes","internalType":"bytes"}],"outputs":[],"stateMutability":"nonpayable"},{"type":"function","name":"requestUploadEncryptedOutput","inputs":[{"name":"taskId","type":"uint256","internalType":"uint256"},{"name":"outputHash","type":"bytes32","internalType":"bytes32"},{"name":"dataNodePubkey","type":"bytes","internalType":"bytes"}],"outputs":[],"stateMutability":"nonpayable"},{"type":"function","name":"submittedTasks","inputs":[{"name":"","type":"uint256","internalType":"uint256"}],"outputs":[{"name":"blockNumber","type":"uint256","internalType":"uint256"},{"name":"modelName","type":"string","internalType":"string"},{"name":"userPubkey","type":"bytes","internalType":"bytes"},{"name":"computeNodePubkey","type":"bytes","internalType":"bytes"},{"name":"encryptedInput","type":"bytes","internalType":"bytes"}],"stateMutability":"view"},{"type":"function","name":"taskComputeNodePubkey","inputs":[{"name":"taskId","type":"uint256","internalType":"uint256"}],"outputs":[{"name":"","type":"bytes","internalType":"bytes"}],"stateMutability":"view"},{"type":"function","name":"taskCount","inputs":[],"outputs":[{"name":"","type":"uint256","internalType":"uint256"}],"stateMutability":"view"},{"type":"function","name":"timeoutBlocks","inputs":[],"outputs":[{"name":"","type":"uint8","internalType":"uint8"}],"stateMutability":"view"},{"type":"function","name":"timeoutTasks","inputs":[{"name":"","type":"uint256","internalType":"uint256"}],"outputs":[{"name":"taskId","type":"uint256","internalType":"uint256"},{"name":"blockNumber","type":"uint256","internalType":"uint256"}],"stateMutability":"view"},{"type":"function","name":"uploadingTasks","inputs":[{"name":"","type":"uint256","internalType":"uint256"}],"outputs":[{"name":"","type":"bytes","internalType":"bytes"}],"stateMutability":"view"},{"type":"function","name":"workingComputeNodes","inputs":[{"name":"","type":"bytes","internalType":"bytes"}],"outputs":[{"name":"","type":"uint256","internalType":"uint256"}],"stateMutability":"view"},{"type":"event","name":"NewTask","inputs":[{"name":"taskId","type":"uint256","indexed":false,"internalType":"uint256"}],"anonymous":false},{"type":"event","name":"TaskCompleted","inputs":[{"name":"taskId","type":"uint256","indexed":true,"internalType":"uint256"}],"anonymous":false},{"type":"event","name":"TaskTimeout","inputs":[{"name":"taskId","type":"uint256","indexed":true,"internalType":"uint256"}],"anonymous":false},{"type":"event","name":"UploadingEncryptedOutput","inputs":[{"name":"taskId","type":"uint256","indexed":false,"internalType":"uint256"},{"name":"outputHash","type":"bytes32","indexed":false,"internalType":"bytes32"},{"name":"dataNodePubkey","type":"bytes","indexed":false,"internalType":"bytes"}],"anonymous":false}],"bytecode":{"object":"0x60806040526001805460ff1916600a17905534801561001c575f80fd5b50611b8e8061002a5f395ff3fe608060405234801561000f575f80fd5b50600436106100b1575f3560e01c8063844f5f0b1161006e578063844f5f0b146101a6578063929fe2b0146101b9578063b6cb58a5146101cc578063cf47787d146101d4578063d2d3f04a146101e7578063e514e9951461020b575f80fd5b806309688714146100b55780630ea35e98146100ca5780631d9ae41c146101085780632ebe14b01461012857806340d22cf8146101475780637ae9e2961461016b575b5f80fd5b6100c86100c33660046115ee565b61021e565b005b6100f56100d8366004611660565b805160208183018101805160058252928201919093012091525481565b6040519081526020015b60405180910390f35b61011b61011636600461169a565b6106bc565b6040516100ff91906116fe565b6001546101359060ff1681565b60405160ff90911681526020016100ff565b61015a61015536600461169a565b610753565b6040516100ff959493929190611710565b61019161017936600461169a565b60036020525f90815260409020805460019091015482565b604080519283526020830191909152016100ff565b61011b6101b436600461169a565b610913565b6100c86101c7366004611760565b610b83565b6100f55f5481565b6100c86101e2366004611845565b610fd1565b6101fa6101f536600461169a565b611080565b6040516100ff959493929190611891565b6100c86102193660046115ee565b61112d565b5f8481526002602052604081205490036102535760405162461bcd60e51b815260040161024a906118cf565b60405180910390fd5b5f848152600460205260409020541561027e5760405162461bcd60e51b815260040161024a906118f7565b5f848152600660205260408120805461029690611922565b9050116102e55760405162461bcd60e51b815260206004820152601d60248201527f64617461206e6f646520746f2075706c6f6164206e6f7420666f756e64000000604482015260640161024a565b5f84815260066020526040908190209051610300919061195a565b60405180910390208180519060200120146103525760405162461bcd60e51b81526020600482015260126024820152710c8c2e8c240dcdec8ca40dad2e6dac2e8c6d60731b604482015260640161024a565b6040805160a0810182528581526020808201868152828401868152845180840186525f808252606086019190915260808501879052898152600490935293909120825181559051600182015591519091829160028201906103b39082611a1a565b50606082015160038201906103c89082611a1a565b50608082015160048201906103dd9082611a1a565b509050505f60025f8781526020019081526020015f206040518060a00160405290815f820154815260200160018201805461041790611922565b80601f016020809104026020016040519081016040528092919081815260200182805461044390611922565b801561048e5780601f106104655761010080835404028352916020019161048e565b820191905f5260205f20905b81548152906001019060200180831161047157829003601f168201915b505050505081526020016002820180546104a790611922565b80601f01602080910402602001604051908101604052809291908181526020018280546104d390611922565b801561051e5780601f106104f55761010080835404028352916020019161051e565b820191905f5260205f20905b81548152906001019060200180831161050157829003601f168201915b5050505050815260200160038201805461053790611922565b80601f016020809104026020016040519081016040528092919081815260200182805461056390611922565b80156105ae5780601f10610585576101008083540402835291602001916105ae565b820191905f5260205f20905b81548152906001019060200180831161059157829003601f168201915b505050505081526020016004820180546105c790611922565b80601f01602080910402602001604051908101604052809291908181526020018280546105f390611922565b801561063e5780601f106106155761010080835404028352916020019161063e565b820191905f5260205f20905b81548152906001019060200180831161062157829003601f168201915b50505050508152505090506005816060015160405161065d9190611ad6565b90815260200160405180910390205f905560065f8781526020019081526020015f205f61068a91906114c7565b60405186907fc1fa7142cfb933d0855114a3bffde296944c30b727f297c14d0db4d553d3a5c7905f90a2505050505050565b60066020525f9081526040902080546106d490611922565b80601f016020809104026020016040519081016040528092919081815260200182805461070090611922565b801561074b5780601f106107225761010080835404028352916020019161074b565b820191905f5260205f20905b81548152906001019060200180831161072e57829003601f168201915b505050505081565b60046020525f90815260409020805460018201546002830180549293919261077a90611922565b80601f01602080910402602001604051908101604052809291908181526020018280546107a690611922565b80156107f15780601f106107c8576101008083540402835291602001916107f1565b820191905f5260205f20905b8154815290600101906020018083116107d457829003601f168201915b50505050509080600301805461080690611922565b80601f016020809104026020016040519081016040528092919081815260200182805461083290611922565b801561087d5780601f106108545761010080835404028352916020019161087d565b820191905f5260205f20905b81548152906001019060200180831161086057829003601f168201915b50505050509080600401805461089290611922565b80601f01602080910402602001604051908101604052809291908181526020018280546108be90611922565b80156109095780601f106108e057610100808354040283529160200191610909565b820191905f5260205f20905b8154815290600101906020018083116108ec57829003601f168201915b5050505050905085565b5f818152600260209081526040808320815160a0810190925280548252600181018054606095948401919061094790611922565b80601f016020809104026020016040519081016040528092919081815260200182805461097390611922565b80156109be5780601f10610995576101008083540402835291602001916109be565b820191905f5260205f20905b8154815290600101906020018083116109a157829003601f168201915b505050505081526020016002820180546109d790611922565b80601f0160208091040260200160405190810160405280929190818152602001828054610a0390611922565b8015610a4e5780601f10610a2557610100808354040283529160200191610a4e565b820191905f5260205f20905b815481529060010190602001808311610a3157829003601f168201915b50505050508152602001600382018054610a6790611922565b80601f0160208091040260200160405190810160405280929190818152602001828054610a9390611922565b8015610ade5780601f10610ab557610100808354040283529160200191610ade565b820191905f5260205f20905b815481529060010190602001808311610ac157829003601f168201915b50505050508152602001600482018054610af790611922565b80601f0160208091040260200160405190810160405280929190818152602001828054610b2390611922565b8015610b6e5780601f10610b4557610100808354040283529160200191610b6e565b820191905f5260205f20905b815481529060010190602001808311610b5157829003601f168201915b50505091909252505050606001519392505050565b5f600582604051610b949190611ad6565b9081526040519081900360200190205490508015610ebe575f60025f8381526020019081526020015f206040518060a00160405290815f8201548152602001600182018054610be290611922565b80601f0160208091040260200160405190810160405280929190818152602001828054610c0e90611922565b8015610c595780601f10610c3057610100808354040283529160200191610c59565b820191905f5260205f20905b815481529060010190602001808311610c3c57829003601f168201915b50505050508152602001600282018054610c7290611922565b80601f0160208091040260200160405190810160405280929190818152602001828054610c9e90611922565b8015610ce95780601f10610cc057610100808354040283529160200191610ce9565b820191905f5260205f20905b815481529060010190602001808311610ccc57829003601f168201915b50505050508152602001600382018054610d0290611922565b80601f0160208091040260200160405190810160405280929190818152602001828054610d2e90611922565b8015610d795780601f10610d5057610100808354040283529160200191610d79565b820191905f5260205f20905b815481529060010190602001808311610d5c57829003601f168201915b50505050508152602001600482018054610d9290611922565b80601f0160208091040260200160405190810160405280929190818152602001828054610dbe90611922565b8015610e095780601f10610de057610100808354040283529160200191610e09565b820191905f5260205f20905b815481529060010190602001808311610dec57829003601f168201915b505050919092525050600154825192935060ff1691610e29915043611b05565b11610e6d5760405162461bcd60e51b8152602060048201526014602482015273636f6d70757465206e6f6465206973206275737960601b604482015260640161024a565b6040805180820182528381524360208083019182525f86815260039091528390208251815590516001909101559051600590610eaa908690611ad6565b90815260200160405180910390205f905550505b5f545f03610ecb5760015f555b6040805160a081018252438152845160208083019182528681015183850152606083018690528684015160808401525f80548082526002909252939093208251815590519192918391906001820190610f249082611a1a565b5060408201516002820190610f399082611a1a565b5060608201516003820190610f4e9082611a1a565b5060808201516004820190610f639082611a1a565b50505f54610f7391506001611b1e565b5f556040518190600590610f88908790611ad6565b90815260405160209181900382018120929092558282527f0308e35d068a731dcf227a01af50313408b863f815670a72362dfa93fdd0686d910160405180910390a15050505050565b5f838152600260205260408120549003610ffd5760405162461bcd60e51b815260040161024a906118cf565b5f83815260046020526040902054156110285760405162461bcd60e51b815260040161024a906118f7565b5f83815260066020526040902061103f8282611a1a565b507f24505d180984df6e715086c92cc27c82b4d097219b24f06d42658d5e0587f7ef83838360405161107393929190611b31565b60405180910390a1505050565b60026020525f9081526040902080546001820180549192916110a190611922565b80601f01602080910402602001604051908101604052809291908181526020018280546110cd90611922565b80156111185780601f106110ef57610100808354040283529160200191611118565b820191905f5260205f20905b8154815290600101906020018083116110fb57829003601f168201915b50505050509080600201805461077a90611922565b5f8481526002602052604081205490036111595760405162461bcd60e51b815260040161024a906118cf565b5f84815260046020526040902054156111845760405162461bcd60e51b815260040161024a906118f7565b6040805160a08101825285815260208082018681528284018681526060848101879052608085018190525f8a81526004909452949092208351815590516001820155905182919060028201906111da9082611a1a565b50606082015160038201906111ef9082611a1a565b50608082015160048201906112049082611a1a565b509050505f60025f8881526020019081526020015f206040518060a00160405290815f820154815260200160018201805461123e90611922565b80601f016020809104026020016040519081016040528092919081815260200182805461126a90611922565b80156112b55780601f1061128c576101008083540402835291602001916112b5565b820191905f5260205f20905b81548152906001019060200180831161129857829003601f168201915b505050505081526020016002820180546112ce90611922565b80601f01602080910402602001604051908101604052809291908181526020018280546112fa90611922565b80156113455780601f1061131c57610100808354040283529160200191611345565b820191905f5260205f20905b81548152906001019060200180831161132857829003601f168201915b5050505050815260200160038201805461135e90611922565b80601f016020809104026020016040519081016040528092919081815260200182805461138a90611922565b80156113d55780601f106113ac576101008083540402835291602001916113d5565b820191905f5260205f20905b8154815290600101906020018083116113b857829003601f168201915b505050505081526020016004820180546113ee90611922565b80601f016020809104026020016040519081016040528092919081815260200182805461141a90611922565b80156114655780601f1061143c57610100808354040283529160200191611465565b820191905f5260205f20905b81548152906001019060200180831161144857829003601f168201915b5050505050815250509050600581606001516040516114849190611ad6565b9081526040519081900360200181205f9081905588917fc1fa7142cfb933d0855114a3bffde296944c30b727f297c14d0db4d553d3a5c79190a250505050505050565b5080546114d390611922565b5f825580601f106114e2575050565b601f0160209004905f5260205f20908101906114fe9190611501565b50565b5b80821115611515575f8155600101611502565b5090565b634e487b7160e01b5f52604160045260245ffd5b6040516060810167ffffffffffffffff8111828210171561155057611550611519565b60405290565b5f67ffffffffffffffff8084111561157057611570611519565b604051601f8501601f19908116603f0116810190828211818310171561159857611598611519565b816040528093508581528686860111156115b0575f80fd5b858560208301375f602087830101525050509392505050565b5f82601f8301126115d8575f80fd5b6115e783833560208501611556565b9392505050565b5f805f8060808587031215611601575f80fd5b8435935060208501359250604085013567ffffffffffffffff80821115611626575f80fd5b611632888389016115c9565b93506060870135915080821115611647575f80fd5b50611654878288016115c9565b91505092959194509250565b5f60208284031215611670575f80fd5b813567ffffffffffffffff811115611686575f80fd5b611692848285016115c9565b949350505050565b5f602082840312156116aa575f80fd5b5035919050565b5f5b838110156116cb5781810151838201526020016116b3565b50505f910152565b5f81518084526116ea8160208601602086016116b1565b601f01601f19169290920160200192915050565b602081525f6115e760208301846116d3565b85815284602082015260a060408201525f61172e60a08301866116d3565b828103606084015261174081866116d3565b9050828103608084015261175481856116d3565b98975050505050505050565b5f8060408385031215611771575f80fd5b823567ffffffffffffffff80821115611788575f80fd5b908401906060828703121561179b575f80fd5b6117a361152d565b8235828111156117b1575f80fd5b8301601f810188136117c1575f80fd5b6117d088823560208401611556565b8252506020830135828111156117e4575f80fd5b6117f0888286016115c9565b602083015250604083013582811115611807575f80fd5b611813888286016115c9565b6040830152509350602085013591508082111561182e575f80fd5b5061183b858286016115c9565b9150509250929050565b5f805f60608486031215611857575f80fd5b8335925060208401359150604084013567ffffffffffffffff81111561187b575f80fd5b611887868287016115c9565b9150509250925092565b85815260a060208201525f6118a960a08301876116d3565b82810360408401526118bb81876116d3565b9050828103606084015261174081866116d3565b6020808252600e908201526d1d185cdac81b9bdd08199bdd5b9960921b604082015260600190565b6020808252601190820152701d185cdac81a5cc818dbdb5c1b195d1959607a1b604082015260600190565b600181811c9082168061193657607f821691505b60208210810361195457634e487b7160e01b5f52602260045260245ffd5b50919050565b5f80835461196781611922565b6001828116801561197f5760018114611994576119c0565b60ff19841687528215158302870194506119c0565b875f526020805f205f5b858110156119b75781548a82015290840190820161199e565b50505082870194505b50929695505050505050565b601f821115611a15575f81815260208120601f850160051c810160208610156119f25750805b601f850160051c820191505b81811015611a11578281556001016119fe565b5050505b505050565b815167ffffffffffffffff811115611a3457611a34611519565b611a4881611a428454611922565b846119cc565b602080601f831160018114611a7b575f8415611a645750858301515b5f19600386901b1c1916600185901b178555611a11565b5f85815260208120601f198616915b82811015611aa957888601518255948401946001909101908401611a8a565b5085821015611ac657878501515f19600388901b60f8161c191681555b5050505050600190811b01905550565b5f8251611ae78184602087016116b1565b9190910192915050565b634e487b7160e01b5f52601160045260245ffd5b81810381811115611b1857611b18611af1565b92915050565b80820180821115611b1857611b18611af1565b838152826020820152606060408201525f611b4f60608301846116d3565b9594505050505056fea2646970667358221220a9b031b4c1384ef57ae6f22d1af04386eced37dbde23711adfeb9af311e069a164736f6c63430008140033","linkReferences":{}},"methodIdentifiers":{"completeTask(uint256,bytes32,bytes,bytes)":"e514e995","completeTaskWithData(uint256,bytes32,bytes,bytes)":"09688714","completedTasks(uint256)":"40d22cf8","requestModel((string,bytes,bytes),bytes)":"929fe2b0","requestUploadEncryptedOutput(uint256,bytes32,bytes)":"cf47787d","submittedTasks(uint256)":"d2d3f04a","taskComputeNodePubkey(uint256)":"844f5f0b","taskCount()":"b6cb58a5","timeoutBlocks()":"2ebe14b0","timeoutTasks(uint256)":"7ae9e296","uploadingTasks(uint256)":"1d9ae41c","workingComputeNodes(bytes)":"0ea35e98"},"id":28}